:100000000C942A000C943F000C943F000C943F0089
:100010000C943F000C943F000C943F000C943F0064
:100020000C943F000C943F000C943F000C943F0054
:100030000C943F000C943F000C943F000C943F0044
:100040000C943F000C943F000C943F000C943F0034
:100050000C943F0011241FBECFE5D8E0DEBFCDBF1A
:1000600010E0A0E6B0E0E6E0F0E102C005900D92FD
:10007000A63AB107D9F70E94EE070C9401080C9438
:100080000000DF93CF930F92CDB7DEB781E0898375
:10009000EAE3F0E08FE08083EBE3F0E085E5808346
:1000A000E7E3F0E08FE08083E8E3F0E085E580833C
:1000B000E4E3F0E08FE08083E5E3F0E085E5808332
:1000C000E1E3F0E08FE08083E2E3F0E085E5808328
:1000D000198289810F90CF91DF910895DF93CF939B
:1000E00000D000D000D0CDB7DEB78A836B834C83BD
:1000F00081E089838A81843008F0D0C08B81883088
:1001000008F0CCC08C81823008F0C8C08A81282FCA
:1001100030E03E832D836D817E816130710509F46D
:1001200041C08D819E818230910534F42D813E81C4
:100130002115310571F0B0C06D817E81623071058D
:1001400009F459C08D819E818330910509F47CC0EA
:10015000A3C0AAE3B0E0EAE3F0E08081482F8B81FE
:10016000282F30E081E090E002C0880F991F2A9587
:10017000E2F7809584238C93AAE3B0E0EAE3F0E011
:100180008081482F8C81282F30E08B81882F90E050
:10019000B90102C0660F771F8A95E2F7CB01842B65
:1001A0008C937AC0A7E3B0E0E7E3F0E08081482FCA
:1001B0008B81282F30E081E090E002C0880F991FEA
:1001C0002A95E2F7809584238C93A7E3B0E0E7E3D8
:1001D000F0E08081482F8C81282F30E08B81882FA0
:1001E00090E0B90102C0660F771F8A95E2F7CB0154
:1001F000842B8C9351C0A4E3B0E0E4E3F0E0808171
:10020000482F8B81282F30E081E090E002C0880FDA
:10021000991F2A95E2F7809584238C93A4E3B0E09C
:10022000E4E3F0E08081482F8C81282F30E08B813F
:10023000882F90E0B90102C0660F771F8A95E2F718
:10024000CB01842B8C9328C0A1E3B0E0E1E3F0E084
:100250008081482F8B81282F30E081E090E002C020
:10026000880F991F2A95E2F7809584238C93A1E348
:10027000B0E0E1E3F0E08081482F8C81282F30E06E
:100280008B81882F90E0B90102C0660F771F8A9595
:10029000E2F7CB01842B8C93198202C082E0898320
:1002A000898126960FB6F894DEBF0FBECDBFCF91E1
:1002B000DF910895DF93CF9300D000D000D0CDB769
:1002C000DEB78A836B834C8381E089838A818430A3
:1002D00008F0D3C08B81883008F0CFC08C81823089
:1002E00020F08C81823008F0C8C08A81282F30E04D
:1002F0003E832D836D817E816130710509F441C09B
:100300008D819E818230910534F42D813E812115AD
:10031000310571F0B0C06D817E816230710509F4E4
:1003200059C08D819E818330910509F47CC0A3C0A2
:10033000ABE3B0E0EBE3F0E08081482F8B81282F26
:1003400030E081E090E002C0880F991F2A95E2F723
:10035000809584238C93ABE3B0E0EBE3F0E0808105
:10036000482F8C81282F30E08B81882F90E0B901B5
:1003700002C0660F771F8A95E2F7CB01842B8C931E
:100380007AC0A8E3B0E0E8E3F0E08081482F8B81F9
:10039000282F30E081E090E002C0880F991F2A9555
:1003A000E2F7809584238C93A8E3B0E0E8E3F0E0E3
:1003B0008081482F8C81282F30E08B81882F90E01E
:1003C000B90102C0660F771F8A95E2F7CB01842B33
:1003D0008C9351C0A5E3B0E0E5E3F0E08081482FC5
:1003E0008B81282F30E081E090E002C0880F991FB8
:1003F0002A95E2F7809584238C93A5E3B0E0E5E3AA
:10040000F0E08081482F8C81282F30E08B81882F6D
:1004100090E0B90102C0660F771F8A95E2F7CB0121
:10042000842B8C9328C0A2E3B0E0E2E3F0E080816B
:10043000482F8B81282F30E081E090E002C0880FA8
:10044000991F2A95E2F7809584238C93A2E3B0E06C
:10045000E2E3F0E08081482F8C81282F30E08B810F
:10046000882F90E0B90102C0660F771F8A95E2F7E6
:10047000CB01842B8C93198202C082E0898389810D
:1004800026960FB6F894DEBF0FBECDBFCF91DF9199
:100490000895DF93CF9300D000D00F92CDB7DEB791
:1004A0008A836B8381E089838A81843008F074C0F9
:1004B0008B81883008F070C08A81282F30E03D831E
:1004C0002C838C819D818130910549F12C813D8166
:1004D000223031052CF48C819D81009761F05AC047
:1004E0002C813D812230310571F18C819D818330D9
:1004F0009105E9F14FC0ABE3B0E0EBE3F0E08081C0
:10050000482F8B81282F30E081E090E0022E02C03E
:10051000880F991F0A94E2F784278C933BC0A8E3C5
:10052000B0E0E8E3F0E08081482F8B81282F30E0B5
:1005300081E090E0022E02C0880F991F0A94E2F732
:1005400084278C9327C0A5E3B0E0E5E3F0E0808149
:10055000482F8B81282F30E081E090E0022E02C0EE
:10056000880F991F0A94E2F784278C9313C0A2E3A3
:10057000B0E0E2E3F0E08081482F8B81282F30E06B
:1005800081E090E0022E02C0880F991F0A94E2F7E2
:1005900084278C93198202C082E0898389810F901D
:1005A0000F900F900F900F90CF91DF910895DF93F0
:1005B000CF93CDB7DEB727970FB6F894DEBF0FBE47
:1005C000CDBF8A836B835D834C8381E08983EC811B
:1005D000FD818081882F90E0009709F47DC08A8199
:1005E000843008F076C08B81883008F072C08A8130
:1005F000282F30E03F832E834E815F8141305105AB
:1006000059F18E819F818230910534F42E813F8192
:100610002115310569F05BC04E815F814230510583
:1006200079F18E819F818330910509F43DC04FC0DF
:10063000E9E3F0E08081282F30E08B81882F90E083
:10064000A90102C0559547958A95E2F7CA018170C4
:10065000EC81FD8180833BC0E9E3F0E08081282FBD
:1006600030E08B81882F90E0A90102C05595479515
:100670008A95E2F7CA018170EC81FD81808327C0F1
:10068000E3E3F0E08081282F30E08B81882F90E039
:10069000A90102C0559547958A95E2F7CA01817074
:1006A000EC81FD81808313C0E0E3F0E08081282F9E
:1006B00030E08B81882F90E0A90102C055954795C5
:1006C0008A95E2F7CA018170EC81FD8180831982ED
:1006D00005C082E0898302C083E0898389812796EF
:1006E0000FB6F894DEBF0FBECDBFCF91DF91089556
:1006F000DF93CF9300D000D0CDB7DEB79C838B8340
:1007000081E08A8319824AC28981482F50E0CA0158
:10071000880F991F9C01220F331F220F331F220FB6
:10072000331F820F931F9C01240F351F8B819C81E7
:10073000FC01E20FF31F60818981482F50E0CA015C
:10074000880F991F9C01220F331F220F331F220F86
:10075000331F820F931F9C01240F351F8B819C81B7
:10076000FC01E20FF31F9181862F692F41E00E9467
:100770006E008981482F50E0CA01880F991F9C01A3
:10078000220F331F220F331F220F331F820F931F9D
:100790009C01240F351F8B819C81FC01E20FF31F0C
:1007A00062818981482F50E0CA01880F991F9C01FE
:1007B000220F331F220F331F220F331F820F931F6D
:1007C0009C01240F351F8B819C81FC01E20FF31FDC
:1007D0009381862F692F41E00E946E008981482F06
:1007E00050E0CA01880F991F9C01220F331F220F6E
:1007F000331F220F331F820F931F9C01240F351FBD
:100800008B819C81FC01E20FF31F64818981482F59
:1008100050E0CA01880F991F9C01220F331F220F3D
:10082000331F220F331F820F931F9C01240F351F8C
:100830008B819C81FC01E20FF31F9581862F692F2C
:1008400041E00E946E008981482F50E0CA01880F64
:10085000991F9C01220F331F220F331F220F331FBA
:10086000820F931F9C01240F351F8B819C81FC01FB
:10087000E20FF31F66818981482F50E0CA01880F7B
:10088000991F9C01220F331F220F331F220F331F8A
:10089000820F931F9C01240F351F8B819C81FC01CB
:1008A000E20FF31F9781862F692F41E00E946E00AF
:1008B0008981482F50E0CA01880F991F9C01220F9F
:1008C000331F220F331F220F331F820F931F9C01F0
:1008D000240F351F8B819C81FC01E20FF31F608583
:1008E0008981482F50E0CA01880F991F9C01220F6F
:1008F000331F220F331F220F331F820F931F9C01C0
:10090000240F351F8B819C81FC01E20FF31F918521
:10091000862F692F41E00E946E008981482F50E0A8
:10092000CA01880F991F9C01220F331F220F331F0A
:10093000220F331F820F931F9C01240F351F8B81C1
:100940009C81FC01E20FF31F62858981482F50E0F2
:10095000CA01880F991F9C01220F331F220F331FDA
:10096000220F331F820F931F9C01240F351F8B8191
:100970009C81FC01E20FF31F9385862F692F41E0D4
:100980000E946E008981482F50E0CA01880F991F8C
:100990009C01220F331F220F331F220F331F820FA0
:1009A000931F9C01240F351F8B819C81FC01E20F5A
:1009B000F31F64858981482F50E0CA01880F991F71
:1009C0009C01220F331F220F331F220F331F820F70
:1009D000931F9C01240F351F8B819C81FC01E20F2A
:1009E000F31F9585862F692F41E00E946E00898153
:1009F000482F50E0CA01880F991F9C01220F331F16
:100A0000220F331F220F331F820F931F9C01240FCD
:100A1000351F8B819C81FC01E20FF31F868589368F
:100A200009F44FC08981482F50E0CA01880F991FEF
:100A30009C01220F331F220F331F220F331F820FFF
:100A4000931F9C01240F351F8B819C81FC01E20FB9
:100A5000F31F87858936A9F18981482F50E0CA01A3
:100A6000880F991F9C01220F331F220F331F220F63
:100A7000331F820F931F9C01240F351F8B819C8194
:100A8000FC01E20FF31F66858981482F50E0CA01FF
:100A9000880F991F9C01220F331F220F331F220F33
:100AA000331F820F931F9C01240F351F8B819C8164
:100AB000FC01E20FF31F9785862F692F41E00E940A
:100AC0006E008981482F50E0CA01880F991F9C0150
:100AD000220F331F220F331F220F331F820F931F4A
:100AE0009C01240F351F8B819C81FC01E20FF31FB9
:100AF0008089893609F44FC08981482F50E0CA01A6
:100B0000880F991F9C01220F331F220F331F220FC2
:100B1000331F820F931F9C01240F351F8B819C81F3
:100B2000FC01E20FF31F81898936A9F18981482FE1
:100B300050E0CA01880F991F9C01220F331F220F1A
:100B4000331F220F331F820F931F9C01240F351F69
:100B50008B819C81FC01E20FF31F60898981482F02
:100B600050E0CA01880F991F9C01220F331F220FEA
:100B7000331F220F331F820F931F9C01240F351F39
:100B80008B819C81FC01E20FF31F9189862F692FD5
:100B900041E00E946E0089818F5F89838981823064
:100BA00008F4B2CD8A810F900F900F900F90CF91E3
:100BB000DF910895DF93CF9300D000D0CDB7DEB79B
:100BC0009B838A836C8381E08983EA81FB818289AC
:100BD000813451F48C81882F90E0FC01EA56FF4F5C
:100BE000808180958C830DC0EA81FB8182898F355D
:100BF00041F48C81882F90E0FC01EA56FF4F808100
:100C00008C83EA81FB812081EA81FB8131818C81A7
:100C1000982F9170822F632F492F0E945A01EA81E9
:100C2000FB813281EA81FB8123818C818695982F1B
:100C30009170832F622F492F0E945A01EA81FB8114
:100C40003481EA81FB8125818C8186958695982F58
:100C50009170832F622F492F0E945A01EA81FB81F4
:100C60003681EA81FB8127818C81869586958695E0
:100C7000982F9170832F622F492F0E945A01EA8189
:100C8000FB813085EA81FB8121858C8182958F7083
:100C9000982F9170832F622F492F0E945A01EA8169
:100CA000FB813285EA81FB8123858C818295869543
:100CB0008770982F9170832F622F492F0E945A01BD
:100CC000EA81FB813485EA81FB8125858C818295CF
:100CD000869586958370982F9170832F622F492F68
:100CE0000E945A0189810F900F900F900F90CF9121
:100CF000DF910895DF93CF9300D00F92CDB7DEB789
:100D00009B838A8381E08983EA81FB81868589369A
:100D100021F1EA81FB8187858936F9F0EA81FB813F
:100D20008289813459F4EA81FB818685EA81FB81DD
:100D30009785692F41E00E945A010FC0EA81FB812B
:100D400082898F3551F4EA81FB818685EA81FB81B6
:100D50009785692F40E00E945A0189810F900F907A
:100D60000F90CF91DF910895DF93CF9300D00F9232
:100D7000CDB7DEB79B838A8381E08983EA81FB81DB
:100D80008685893621F1EA81FB8187858936F9F0EC
:100D9000EA81FB818289813459F4EA81FB8186856D
:100DA000EA81FB819785692F40E00E945A010FC0BC
:100DB000EA81FB8182898F3551F4EA81FB81868546
:100DC000EA81FB819785692F41E00E945A01898160
:100DD0000F900F900F90CF91DF910895DF93CF93F5
:100DE00000D00F92CDB7DEB79B838A8381E08983E1
:100DF000EA81FB818089893621F1EA81FB81818941
:100E00008936F9F0EA81FB818289813459F4EA81DB
:100E1000FB818089EA81FB819189692F40E00E94F2
:100E20005A010FC0EA81FB8182898F3551F4EA8132
:100E3000FB818089EA81FB819189692F41E00E94D1
:100E40005A0189810F900F900F90CF91DF910895F3
:100E5000DF93CF9300D00F92CDB7DEB79B838A8309
:100E600081E08983EA81FB818089893621F1EA81E9
:100E7000FB8181898936F9F0EA81FB81828981349D
:100E800059F4EA81FB818089EA81FB819189692F8C
:100E900041E00E945A010FC0EA81FB8182898F35AF
:100EA00051F4EA81FB818089EA81FB819189692F74
:100EB00040E00E945A0189810F900F900F90CF91CE
:100EC000DF910895DF93CF9300D000D0CDB7DEB788
:100ED0009C838B8381E08A831982EB81FC818289E8
:100EE000813419F4898180958983EB81FC8120818B
:100EF000EB81FC8131818981982F9170822F632F42
:100F0000492F0E945A01EB81FC813281EB81FC81E7
:100F1000238189818695982F9170832F622F492F85
:100F20000E945A01EB81FC813481EB81FC81258197
:100F3000898186958695982F9170832F622F492FEE
:100F40000E945A01EB81FC813681EB81FC81278173
:100F50008981869586958695982F9170832F622F2B
:100F6000492F0E945A01EB81FC813085EB81FC8185
:100F70002185898182958F70982F9170832F622FA0
:100F8000492F0E945A01EB81FC813285EB81FC8163
:100F900023858981829586958770982F9170832FFC
:100FA000622F492F0E945A01EB81FC813485EB812D
:100FB000FC81258589818295869586958370982FF9
:100FC0009170832F622F492F0E945A018A810F90BE
:100FD0000F900F900F90CF91DF910895DF93CF93F3
:100FE000CDB7DEB780E790E00E94780383E890E019
:100FF00065E00E94DA0580E790E068E00E94DA058B
:06100000F5CFF894FFCFCC
:101006003F065B4F666D7D077F6F777C395E797132
:1010160000000301000100020003000400050006B1
:10102600696969010002010101010201030104016C
:101036000501066969693F065B4F666D7D077F6F2F
:06104600777C395E797130
:00000001FF
